:100000000C9453000C947B000C947B000C947B00AC
:100010000C947B000C947B000C947B000C947B0074
:100020000C947B000C947B000C947B000C947B0064
:100030000C947B000C947B000C947B000C947B0054
:100040000C9489030C947B000C9457030C9431039B
:100050000C947B000C94D3030C947B000C947B00D9
:100060000C947B000C947B0000000000250028000D
:100070002B0000000000240027002A0004040404D0
:100080000404040402020202020203030303030342
:10009000010204081020408001020408102001021F
:1000A00004081020650411241FBECFEFD8E0DEBF86
:1000B000CDBF11E0A0E0B1E0E0E9FDE002C00590B5
:1000C0000D92A231B107D9F722E0A2E1B1E001C05F
:1000D0001D92A735B207E1F710E0C3E5D0E004C0F8
:1000E0002197FE010E94BB06C235D107C9F70E94C5
:1000F000B0050C94C6060C940000CF93DF93FC016E
:100100002289822F90E0EF01A0E0B0E0A817B907A4
:10011000E4F438813F702396631711F01196F6CFFF
:10012000ED01CC0FDD1FCA0FDB1FCE0FDF1F606993
:100130006883CD019C01220F331F820F931FE80FAC
:10014000F91F5283418381E016C0263098F42F5F57
:10015000228BDC01AA0FBB1FA80FB91FAE0FBF1F58
:100160006F7060696C9360E7269F90011124348B57
:10017000238BE0CF80E0DF91CF91089590E0FC01E8
:10018000E057FF4F2491FC01E458FF4F84918823EE
:1001900099F090E0880F991FFC01EE58FF4FA59150
:1001A000B491FC01E859FF4F859194918FB7F89471
:1001B000EC91E22BEC938FBF0895CF92DF92EF92F8
:1001C000FF920F931F93CF93DF936C017A018B0102
:1001D000C0E0D0E0CE15DF0581F0D8016D918D0132
:1001E000D601ED91FC910190F081E02DC6010995B9
:1001F000892B11F02196EECF7E01C701DF91CF91BF
:100200001F910F91FF90EF90DF90CF900895089588
:1002100080E090E00895FC01538D448D252F30E05F
:10022000842F90E0821B930B541710F0CF96089503
:1002300001970895FC01918D828D981761F0828D50
:10024000DF01A80FB11D5D968C91928D9F5F9F730A
:10025000928F90E008958FEF9FEF0895FC01918DAC
:10026000828D981731F0828DE80FF11D858D90E019
:1002700008958FEF9FEF0895FC01918D228D892FB6
:1002800090E0805C9F4F821B91098F73992708959E
:100290008BE291E00E943C0121E0892B09F420E0EF
:1002A000822F0895FC01848DDF01A80FB11DA35A90
:1002B000BF4F2C91848D90E001968F739927848F86
:1002C000A689B7892C93A089B1898C9183708064A9
:1002D0008C93938D848D981306C00288F389E02D4A
:1002E00080818F7D80830895EF92FF920F931F93FB
:1002F000CF93DF93EC0181E0888F9B8D8C8D9813D9
:1003000005C0E889F989808185FD26C0F62E0B8D10
:1003100010E00F5F1F4F0F731127E02E8C8DE81236
:100320000CC00FB607FCFACFE889F989808185FFF8
:10033000F5CFCE010E945201F1CF8B8DFE01E80F67
:10034000F11DE35AFF4FF0829FB7F8940B8FEA89B3
:10035000FB89808180620AC09FB7F894EE89FF898B
:100360006083E889F98980818370806480839FBF7E
:1003700081E090E0DF91CF911F910F91FF90EF907E
:100380000895CF93DF93EC01888D8823C9F0EA8923
:10039000FB89808185FD05C0A889B9898C9186FD7E
:1003A0000FC00FB607FCF5CF808185FFF2CFA8897B
:1003B000B9898C9185FFEDCFCE010E945201E7CF24
:1003C000DF91CF91089580E090E0892B29F00E9481
:1003D000480181110C9400000895809112019091C0
:1003E0001301EDE1F1E021913191281739070CF467
:1003F000C90121E0EB32F207B1F79093130180932A
:1004000012010895CF93C82FEDE1F1E0808391832D
:1004100080931201909313010E94ED0180911201CB
:10042000C81B2C2F30E0A8E8B3E10E949806BB2738
:1004300097FDBA95A92F982F872F90934A02809302
:100440004902CF910895CF93C82FEDE1F1E0828367
:10045000938380931201909313010E94ED01809188
:100460001201C81B2C2F30E0A8E8B3E10E949806C7
:10047000BB2797FDBA95A92F982F872F9093380205
:1004800080933702CF910895CF93C82FEDE1F1E02B
:100490008483958380931201909313010E94ED0150
:1004A00080911201C81B2C2F30E0A8E8B3E10E9414
:1004B0009806BB2797FDBA95A92F982F872F909361
:1004C000260280932502CF910895CF93C82FEDE1A6
:1004D000F1E08683978380931201909313010E9429
:1004E000ED0180911201C81B2C2F30E0A8E8B3E188
:1004F0000E949806BB2797FDBA95A92F982F872FA2
:100500009093140280931302CF910895CF93C82F34
:10051000EDE1F1E0808791878093120190931301C0
:100520000E94ED0180911201C81B2C2F30E0A8E839
:10053000B3E10E949806BB2797FDBA95A92F982F83
:10054000872F9093020280930102CF910895CF9359
:10055000C82FEDE1F1E08287938780931201909399
:1005600013010E94ED0180911201C81B2C2F30E075
:10057000A8E8B3E10E949806BB2797FDBA95A92F7A
:10058000982F872F9093F0018093EF01CF910895DA
:10059000FC013FB7F8948091140190911501A0914E
:1005A0001601B091170126B5A89B05C02F3F19F081
:1005B0000196A11DB11D3FBFBA2FA92F982F8827E3
:1005C000820F911DA11DB11D42E0880F991FAA1F26
:1005D000BB1F4A95D1F782879387A487B587468545
:1005E00057856089718984179507A607B707C0F0FA
:1005F000A181B281808180959C9189238C93138203
:1006000082859385A485B58586839783A087B187E6
:1006100088519C4FAF4FBF4F86879787A08BB18B78
:10062000838181111BC02481358186859785A089AE
:10063000B189821B930BA109B10942855385648559
:10064000758584179507A607B70740F4A181B28185
:100650009C918081892B8C9381E0838308950E94F3
:10066000C1061F920F920FB60F9211242F933F9342
:100670004F935F936F937F938F939F93AF93BF93AA
:10068000EF93FF938BE291E00E945201FF91EF9173
:10069000BF91AF919F918F917F916F915F914F919A
:1006A0003F912F910F900FBE0F901F9018951F92A2
:1006B0000F920FB60F9211242F938F939F93EF9366
:1006C000FF93E0913B01F0913C018081E091410179
:1006D000F091420182FD12C09081809144018F5FB0
:1006E0008F7320914501821751F0E0914401F0E0B1
:1006F000E55DFE4F958F8093440101C08081FF919D
:10070000EF919F918F912F910F900FBE0F901F909F
:1007100018951F920F920FB60F9211242F933F93AB
:100720008F939F93AF93BF938091190190911A017A
:10073000A0911B01B0911C013091180123E0230FFF
:100740002D3720F40196A11DB11D05C026E8230F09
:100750000296A11DB11D2093180180931901909359
:100760001A01A0931B01B0931C0180911401909178
:100770001501A0911601B09117010196A11DB11D9F
:100780008093140190931501A0931601B093170163
:10079000BF91AF919F918F913F912F910F900FBE7D
:1007A0000F901F9018951F920F920FB60F92112461
:1007B0000F931F932F933F934F935F936F937F9369
:1007C0008F939F93AF93BF93CF93DF93EF93FF9359
:1007D0000091E9011091EA01F80185899689A789BC
:1007E000B08D0196A11DB11D858B968BA78BB08F07
:1007F000809178009091790020917C002F7062891F
:1008000070E0C0E0D0E0C617D70744F440813396CB
:10081000342F3F702317D9F12196F5CFCFEFDFEFBB
:10082000F80162896623E9F0CE01019670E00E942A
:1008300084069C01220F331F820F931FE80FF91FBC
:100840002081822F90E0E4E095958795EA95E1F785
:100850008370F0E48F9FC00111242F70822B80934E
:100860007C00B29AFF91EF91DF91CF91BF91AF9150
:100870009F918F917F916F915F914F913F912F91B8
:100880001F910F910F900FBE0F901F90189550E081
:10089000440F452F441F550B9E01220F331F452B3C
:1008A00061F0F801638974892C0F3D1FE20FF31F7B
:1008B0000180F281E02D0995B3CF2C0F3D1FF80187
:1008C000E20FF31F92838183ABCF10922E0110921F
:1008D0002D0188EE93E0A0E0B0E080932F0190938B
:1008E0003001A0933101B093320184E091E0909304
:1008F0002C0180932B0185EC90E09093380180933C
:10090000370184EC90E090933A018093390180ECB8
:1009100090E090933C0180933B0181EC90E09093B8
:100920003E0180933D0182EC90E0909340018093E2
:100930003F0186EC90E09093420180934101109238
:100940004401109245011092460110924701109205
:10095000480222E330E030934A0220934902109289
:100960004B0210924C0210924D0210924E021092C5
:10097000530210925402109255021092560280E4D3
:10098000809345028BE290E0909347028093460269
:1009900010923602309338022093370210923902B7
:1009A00010923A0210923B0210923C0210924102C5
:1009B00010924202109243021092440240E8409387
:1009C00033029093350280933402109224023093C4
:1009D00026022093250210922702109228021092DC
:1009E000290210922A0210922F02109230021092C5
:1009F00031021092320244E040932102909323028C
:100A00008093220210921202309314022093130258
:100A100010921502109216021092170210921802EC
:100A200010921D0210921E0210921F0210922002BC
:100A300048E040930F0290931102809310021092AD
:100A400000023093020220930102109203021092DE
:100A50000402109205021092060210920B021092EC
:100A60000C0210920D0210920E0240E14093FD0123
:100A70009093FF018093FE011092EE013093F001FC
:100A80002093EF011092F1011092F2011092F30104
:100A90001092F4011092F9011092FA011092FB01E8
:100AA0001092FC0120E22093EB019093ED018093E2
:100AB000EC018091E10181114CC01092DA01109299
:100AC000DD011092DE011092DF011092E0017894B6
:100AD00010927A0080917A00816080937A008091F0
:100AE0007A00826080937A0080917A00846080939B
:100AF0007A0080917A00806880937A0080917A00F1
:100B0000886080937A0080917A00806280937A0076
:100B100080917B00816080937B0080917B0084606A
:100B200080937B0080EE90E090938B0080938A000E
:100B300010928000109281008091810088608093E3
:100B400081008091810081608093810081E08093A9
:100B5000E10188EC91E09093EA018093E901089526
:100B6000789484B5826084BD84B5816084BD85B588
:100B7000826085BD85B5816085BD80916E00816094
:100B800080936E001092810080918100826080933A
:100B9000810080918100816080938100809180003C
:100BA0008160809380008091B10084608093B10067
:100BB0008091B00081608093B00080917A00846061
:100BC00080937A0080917A00826080937A0080918D
:100BD0007A00816080937A0080917A0080688093A7
:100BE0007A001092C10010922A0110922901C0913E
:100BF000E901D091EA0142E052E060E0CE010E94BA
:100C00007D0043E252E061E0CE010E947D0044E4B9
:100C100052E062E0CE010E947D0045E652E063E0D2
:100C2000CE010E947D0046E852E064E0CE010E94C1
:100C30007D0047EA52E065E0CE010E947D0082E03F
:100C40000E94BE0083E00E94BE0084E00E94BE00BD
:100C500085E00E94BE0086E00E94BE0087E00E9400
:100C6000BE00E0913B01F0913C0182E08083E09185
:100C70003B01F0913C011082E0913701F091380185
:100C80001082E0913901F0913A0180E18083109265
:100C90004301E0913F01F091400186E08083E091C3
:100CA0003D01F0913E01808180618083E0913D01B2
:100CB000F0913E01808188608083E0913D01F09158
:100CC0003E01808180688083E0913D01F0913E018A
:100CD00080818F7D808385E492E00E94C80283E357
:100CE00092E00E94C80281E292E00E94C8028FE076
:100CF00092E00E94C8028DEF91E00E94C8028BEE44
:100D000091E00E94C802E7CF97FB072E16F40094EB
:100D100007D077FD09D00E94A70607FC05D03EF456
:100D2000909581959F4F0895709561957F4F089597
:100D3000A29FB001B39FC001A39F700D811D11241C
:100D4000911DB29F700D811D1124911D0895AA1B44
:100D5000BB1B51E107C0AA1FBB1FA617B70710F0A6
:100D6000A61BB70B881F991F5A95A9F780959095D8
:100D7000BC01CD010895EE0FFF1F0590F491E02D09
:100D8000099481E090E0F8940C94C606F894FFCFA3
:100D9000000000007401DD000B01C1013C011A01DB
:020DA0002E0122
:107E0000112484B714BE81FFF0D085E080938100F7
:107E100082E08093C00088E18093C10086E0809377
:107E2000C20080E18093C4008EE0C9D0259A86E02C
:107E300020E33CEF91E0309385002093840096BBD3
:107E4000B09BFECF1D9AA8958150A9F7CC24DD24C4
:107E500088248394B5E0AB2EA1E19A2EF3E0BF2EE7
:107E6000A2D0813461F49FD0082FAFD0023811F036
:107E7000013811F484E001C083E08DD089C08234E0
:107E800011F484E103C0853419F485E0A6D080C0E4
:107E9000853579F488D0E82EFF2485D0082F10E0AE
:107EA000102F00270E291F29000F111F8ED06801E7
:107EB0006FC0863521F484E090D080E0DECF843638
:107EC00009F040C070D06FD0082F6DD080E0C81688
:107ED00080E7D80618F4F601B7BEE895C0E0D1E017
:107EE00062D089930C17E1F7F0E0CF16F0E7DF06D8
:107EF00018F0F601B7BEE89568D007B600FCFDCFD4
:107F0000A601A0E0B1E02C9130E011968C91119780
:107F100090E0982F8827822B932B1296FA010C0160
:107F200087BEE89511244E5F5F4FF1E0A038BF0790
:107F300051F7F601A7BEE89507B600FCFDCF97BE46
:107F4000E89526C08437B1F42ED02DD0F82E2BD052
:107F50003CD0F601EF2C8F010F5F1F4F84911BD097
:107F6000EA94F801C1F70894C11CD11CFA94CF0C13
:107F7000D11C0EC0853739F428D08EE10CD085E9AC
:107F80000AD08FE07ACF813511F488E018D01DD067
:107F900080E101D065CF982F8091C00085FFFCCF94
:107FA0009093C60008958091C00087FFFCCF809118
:107FB000C00084FD01C0A8958091C6000895E0E648
:107FC000F0E098E1908380830895EDDF803219F02E
:107FD00088E0F5DFFFCF84E1DECF1F93182FE3DFCA
:107FE0001150E9F7F2DF1F91089580E0E8DFEE27F6
:047FF000FF270994CA
:027FFE00040479
:0400000300007E007B
:00000001FF
