:100000000C9435000C945D000C945D000C945D0024
:100010000C945D000C945D000C945D000C945D00EC
:100020000C945D000C945D000C945D000C945D00DC
:100030000C945D000C945D000C945D000C945D00CC
:100040000C948A030C945D000C9458030C943203B6
:100050000C945D000C94D4030C945D000C945D0032
:100060000C945D000C945D00660411241FBECFEF5C
:10007000D8E0DEBFCDBF11E0A0E0B1E0E0ECFDE0F4
:1000800002C005900D92A231B107D9F722E0A2E19A
:10009000B1E001C01D92A337B207E1F710E0C5E35C
:1000A000D0E004C02197FE010E94D306C433D107DB
:1000B000C9F70E94C8050C94DE060C940000CF938B
:1000C000DF93FC01208D822F90E0EF01A0E0B0E0F3
:1000D000A817B907E4F438813F702396631711F02D
:1000E0001196F6CFED01CC0FDD1FCA0FDB1FCE0F2F
:1000F000DF1F60696883CD019C01220F331F820FCF
:10010000931FE80FF91F5283418381E016C0283006
:1001100098F42F5F208FDC01AA0FBB1FA80FB91F17
:10012000AE0FBF1F6F7060696C9360E7269F9001F0
:100130001124328F218FE0CF80E0DF91CF9108959D
:10014000CF92DF92EF92FF920F931F93CF93DF93A3
:100150006C017A018B01C0E0D0E0CE15DF0581F0A3
:10016000D8016D918D01D601ED91FC910190F08146
:10017000E02DC6010995892B11F02196EECF7E0165
:10018000C701DF91CF911F910F91FF90EF90DF900A
:10019000CF900895089580E090E00895FC01538D7C
:1001A000448D252F30E0842F90E0821B930B541751
:1001B00010F0CF96089501970895FC01918D828DDE
:1001C000981761F0828DDF01A80FB11D5D968C91AB
:1001D000928D9F5F9F73928F90E008958FEF9FEFB6
:1001E0000895FC01918D828D981731F0828DE80F72
:1001F000F11D858D90E008958FEF9FEF0895FC012C
:10020000918D228D892F90E0805C9F4F821B9109F8
:100210008F73992708958DE291E00E94FF0021E0FD
:10022000892B09F420E0822F0895FC01848DDF01E1
:10023000A80FB11DA35ABF4F2C91848D90E0019659
:100240008F739927848FA689B7892C93A089B18948
:100250008C91837080648C93938D848D981306C0E9
:100260000288F389E02D80818F7D80830895EF924D
:10027000FF920F931F93CF93DF93EC0181E0888F60
:100280009B8D8C8D981305C0E889F989808185FD47
:1002900026C0F62E0B8D10E00F5F1F4F0F73112736
:1002A000E02E8C8DE8120CC00FB607FCFACFE8895F
:1002B000F989808185FFF5CFCE010E941501F1CF2C
:1002C0008B8DFE01E80FF11DE35AFF4FF0829FB7BF
:1002D000F8940B8FEA89FB89808180620AC09FB7FE
:1002E000F894EE89FF896083E889F98980818370B9
:1002F000806480839FBF81E090E0DF91CF911F9168
:100300000F91FF90EF900895CF93DF93EC01888DCC
:100310008823C9F0EA89FB89808185FD05C0A88909
:10032000B9898C9186FD0FC00FB607FCF5CF80818F
:1003300085FFF2CFA889B9898C9185FFEDCFCE01D9
:100340000E941501E7CFDF91CF91089580E090E002
:10035000892B29F00E940B0181110C940000089553
:100360008091120190911301E4E1F1E0219131912A
:10037000281739070CF4C90121E0E432F207B1F77C
:1003800090931301809312010895CF93C82FE4E155
:10039000F1E08083918380931201909313010E9476
:1003A000B00180911201C81B2C2F30E0A4ECB9E001
:1003B0000E94B006BB2797FDBA95A92F982F872FCB
:1003C0009093660280936502CF910895CF93C82FD2
:1003D000E4E1F1E08283938380931201909313010F
:1003E0000E94B00180911201C81B2C2F30E0A4ECB8
:1003F000B9E00E94B006BB2797FDBA95A92F982FA8
:10040000872F9093560280935502CF910895CF93F2
:10041000C82FE4E1F1E084839583809312019093E7
:1004200013010E94B00180911201C81B2C2F30E0F3
:10043000A4ECB9E00E94B006BB2797FDBA95A92F9E
:10044000982F872F9093460280934502CF9108956D
:10045000CF93C82FE4E1F1E0868397838093120164
:10046000909313010E94B00180911201C81B2C2FA0
:1004700030E0A4ECB9E00E94B006BB2797FDBA9526
:10048000A92F982F872F9093360280933502CF9112
:100490000895CF93C82FE4E1F1E08087918780939E
:1004A0001201909313010E94B00180911201C81BA8
:1004B0002C2F30E0A4ECB9E00E94B006BB2797FDDA
:1004C000BA95A92F982F872F909326028093250203
:1004D000CF910895CF93C82FE4E1F1E0828793870D
:1004E00080931201909313010E94B0018091120138
:1004F000C81B2C2F30E0A4ECB9E00E94B006BB274B
:1005000097FDBA95A92F982F872F90931602809365
:100510001502CF910895CF93C82FE4E1F1E08487CD
:10052000958780931201909313010E94B0018091EE
:100530001201C81B2C2F30E0A4ECB9E00E94B006D9
:10054000BB2797FDBA95A92F982F872F9093060266
:1005500080930502CF910895CF93C82FE4E1F1E095
:100560008687978780931201909313010E94B001B0
:1005700080911201C81B2C2F30E0A4ECB9E00E943E
:10058000B006BB2797FDBA95A92F982F872F909378
:10059000F6018093F501CF910895FC013FB7F894DF
:1005A0008091240190912501A0912601B09127010D
:1005B00026B5A89B05C02F3F19F00196A11DB11DBE
:1005C0003FBFBA2FA92F982F8827820F911DA11DF9
:1005D000B11D42E0880F991FAA1FBB1F4A95D1F792
:1005E00080879187A287B3874485558566857785FF
:1005F00084179507A607B707B0F095B1808180955D
:10060000892385B9118280859185A285B3858483EC
:100610009583A683B7838C509E4FAF4FBF4F84877F
:100620009587A687B7878181811119C0228133817F
:1006300084859585A685B785821B930BA109B10991
:10064000408551856285738584179507A607B7078E
:1006500030F495B18081892B85B981E0818308953B
:100660000E94D9061F920F920FB60F9211242F935A
:100670003F934F935F936F937F938F939F93AF932A
:10068000BF93EF93FF938DE291E00E941501FF91DC
:10069000EF91BF91AF919F918F917F916F915F91FA
:1006A0004F913F912F910F900FBE0F901F90189573
:1006B0001F920F920FB60F9211242F938F939F9337
:1006C000EF93FF93E0913D01F0913E018081E09135
:1006D0004301F091440182FD12C090818091460156
:1006E0008F5F8F7320914701821751F0E09146018F
:1006F000F0E0E35DFE4F958F8093460101C080815D
:10070000FF91EF919F918F912F910F900FBE0F90BE
:100710001F9018951F920F920FB60F9211242F93CE
:100720003F938F939F93AF93BF93809129019091B3
:100730002A01A0912B01B0912C013091280123E0D6
:10074000230F2D3720F40196A11DB11D05C026E809
:10075000230F0296A11DB11D20932801809329012A
:1007600090932A01A0932B01B0932C018091240136
:1007700090912501A0912601B09127010196A11D1C
:10078000B11D8093240190932501A0932601B0937D
:100790002701BF91AF919F918F913F912F910F9022
:1007A0000FBE0F901F9018951F920F920FB60F92C9
:1007B00011240F931F932F933F934F935F936F9346
:1007C0007F938F939F93AF93BF93CF93DF93EF93D9
:1007D000FF930091F1011091F201F801838D948D46
:1007E000A58DB68D0196A11DB11D838F948FA58F08
:1007F000B68F809178009091790020917C002F70C5
:10080000608D70E0C0E0D0E0C617D70744F44081A7
:100810003396342F3F702317D9F12196F5CFCFEFC0
:10082000DFEFF801608D6623E9F0CE01019670E0FC
:100830000E949C069C01220F331F820F931FE80F1A
:10084000F91F2081822F90E0E4E095958795EA9545
:10085000E1F78370F0E48F9FC00111242F70822B89
:1008600080937C00B29AFF91EF91DF91CF91BF917D
:10087000AF919F918F917F916F915F914F913F9138
:100880002F911F910F910F900FBE0F901F901895F1
:1008900050E0440F452F441F550B9E01220F331F7C
:1008A000452B61F0F801618D728D2C0F3D1FE20F19
:1008B000F31F0180F281E02D0995B3CF2C0F3D1F6E
:1008C000F801E20FF31F92838183ABCF10923001C6
:1008D00010922F0188EE93E0A0E0B0E08093310108
:1008E00090933201A0933301B093340184E091E0FE
:1008F00090932E0180932D0185EC90E090933A0126
:100900008093390184EC90E090933C0180933B010B
:1009100080EC90E090933E0180933D0181EC90E06B
:100920009093400180933F0182EC90E090934201CC
:100930008093410186EC90E09093440180934301C1
:1009400010924601109247011092480110924901FD
:100950001092640282E390E09093660280936502B5
:1009600010926702109268021092690210926A0255
:1009700010926F0210927002109271021092720225
:1009800021E02093630210925402909356028093C8
:10099000550210925702109258021092590210926A
:1009A0005A0210925F02109260021092610210923D
:1009B000620232E030935302109244029093460256
:1009C0008093450210924702109248021092490209
:1009D00010924A0210924F0210925002109251024D
:1009E0001092520234E030934302109234029093FA
:1009F000360280933502109237021092380210921C
:100A0000390210923A0210923F0210924002109264
:100A100041021092420238E03093330210922402D5
:100A200090932602809325021092270210922802AA
:100A30001092290210922A0210922F021092300274
:100A4000109231021092320230E130932302109260
:100A500014029093160280931502109217021092BE
:100A600018021092190210921A0210921F0210928C
:100A70002002109221021092220230E230931302DF
:100A800010920402909306028093050210920702CE
:100A9000109208021092090210920A0210920F029C
:100AA00010921002109211021092120230E4309350
:100AB00003021092F4019093F6018093F5011092D5
:100AC000F7011092F8011092F9011092FA011092B8
:100AD000FF0110920002109201021092020280E8BF
:100AE0008093F3018091E90181114BC01092E201E2
:100AF0001092E5011092E6011092E7011092E801D0
:100B0000789410927A0080917A00816080937A00C4
:100B100080917A00826080937A0080917A0084606C
:100B200080937A0080917A00806880937A00809127
:100B30007A00886080937A0080917A008062809346
:100B40007A0080917B00816080937B0080917B00A4
:100B5000846080937B0080EE90E090938B00809384
:100B60008A0010928000109281008091810088603C
:100B70008093810080918100816080938100209327
:100B8000E9018AEC91E09093F2018093F1010895DC
:100B9000789484B5826084BD84B5816084BD85B558
:100BA000826085BD85B5816085BD80916E00816064
:100BB00080936E001092810080918100826080930A
:100BC000810080918100816080938100809180000C
:100BD0008160809380008091B10084608093B10037
:100BE0008091B00081608093B00080917A00846031
:100BF00080937A0080917A00826080937A0080915D
:100C00007A00816080937A0080917A008068809376
:100C10007A001092C100E0913D01F0913E0182E026
:100C20008083E0913D01F0913E011082E091390115
:100C3000F0913A011082E0913B01F0913C0180E19A
:100C4000808310924501E0914101F091420186E0DC
:100C50008083E0913F01F091400180818061808339
:100C6000E0913F01F0914001808188608083E091B4
:100C70003F01F0914001808180688083E0913F01D5
:100C8000F091400180818F7D8083C091F101D091EE
:100C9000F20145EC51E060E0CE010E945F0046EEBB
:100CA00051E061E0CE010E945F0047E052E062E067
:100CB000CE010E945F0048E252E063E0CE010E9454
:100CC0005F0049E452E064E0CE010E945F004AE622
:100CD00052E065E0CE010E945F004BE852E066E022
:100CE000CE010E945F004CEA52E067E0CE010E9414
:100CF0005F008FEF84B983E692E00E94CD0283E526
:100D000092E00E94CD0283E492E00E94CD0283E350
:100D100092E00E94CD0283E292E00E94CD0283E144
:100D200092E00E94CD0283E092E00E94CD0283EF28
:100D300091E00E94CD02DFCF97FB072E16F40094BE
:100D400007D077FD09D00E94BF0607FC05D03EF40E
:100D5000909581959F4F0895709561957F4F089567
:100D6000A29FB001B39FC001A39F700D811D1124EC
:100D7000911DB29F700D811D1124911D0895AA1B14
:100D8000BB1B51E107C0AA1FBB1FA617B70710F076
:100D9000A61BB70B881F991F5A95A9F780959095A8
:100DA000BC01CD010895EE0FFF1F0590F491E02DD9
:100DB000099481E090E0F8940C94DE06F894FFCF5B
:100DC000000000003701A000CE008401FF00DD001C
:020DD000F10030
:107E0000112484B714BE81FFF0D085E080938100F7
:107E100082E08093C00088E18093C10086E0809377
:107E2000C20080E18093C4008EE0C9D0259A86E02C
:107E300020E33CEF91E0309385002093840096BBD3
:107E4000B09BFECF1D9AA8958150A9F7CC24DD24C4
:107E500088248394B5E0AB2EA1E19A2EF3E0BF2EE7
:107E6000A2D0813461F49FD0082FAFD0023811F036
:107E7000013811F484E001C083E08DD089C08234E0
:107E800011F484E103C0853419F485E0A6D080C0E4
:107E9000853579F488D0E82EFF2485D0082F10E0AE
:107EA000102F00270E291F29000F111F8ED06801E7
:107EB0006FC0863521F484E090D080E0DECF843638
:107EC00009F040C070D06FD0082F6DD080E0C81688
:107ED00080E7D80618F4F601B7BEE895C0E0D1E017
:107EE00062D089930C17E1F7F0E0CF16F0E7DF06D8
:107EF00018F0F601B7BEE89568D007B600FCFDCFD4
:107F0000A601A0E0B1E02C9130E011968C91119780
:107F100090E0982F8827822B932B1296FA010C0160
:107F200087BEE89511244E5F5F4FF1E0A038BF0790
:107F300051F7F601A7BEE89507B600FCFDCF97BE46
:107F4000E89526C08437B1F42ED02DD0F82E2BD052
:107F50003CD0F601EF2C8F010F5F1F4F84911BD097
:107F6000EA94F801C1F70894C11CD11CFA94CF0C13
:107F7000D11C0EC0853739F428D08EE10CD085E9AC
:107F80000AD08FE07ACF813511F488E018D01DD067
:107F900080E101D065CF982F8091C00085FFFCCF94
:107FA0009093C60008958091C00087FFFCCF809118
:107FB000C00084FD01C0A8958091C6000895E0E648
:107FC000F0E098E1908380830895EDDF803219F02E
:107FD00088E0F5DFFFCF84E1DECF1F93182FE3DFCA
:107FE0001150E9F7F2DF1F91089580E0E8DFEE27F6
:047FF000FF270994CA
:027FFE00040479
:0400000300007E007B
:00000001FF
