:100000000C945D000C9485000C9485000C94850084
:100010000C9485000C9485000C9485000C9485004C
:100020000C9485000C9485000C9485000C9485003C
:100030000C9485000C9485000C9485000C9485002C
:100040000C9445040C9485000C9413040C94ED035B
:100050000C9485000C948F040C9485000C948500FE
:100060000C9485000C9485000000000024002700FB
:100070002A0000000000250028002B0004040404CE
:100080000404040402020202020203030303030342
:10009000010204081020408001020408102001021F
:1000A00004081020000000080002010000030407FB
:1000B0000000000000000000210511241FBECFEF4A
:1000C000D8E0DEBFCDBF11E0A0E0B1E0ECE7FFE09B
:1000D00002C005900D92A231B107D9F722E0A2E14A
:1000E000B1E001C01D92AD36B207E1F710E0CDE5F9
:1000F000D0E004C02197FE010E94B107CC35D107A2
:10010000C9F70E949C060C94BC070C940000EDEA11
:10011000F0E09491E9E9F0E02491E5E8F0E0E49181
:10012000EE2309F43CC0992339F1933091F038F46F
:100130009130A9F0923001F594B59F7D12C09730AF
:1001400091F09830A1F09430B9F4909180009F7DA7
:1001500003C0909180009F77909380000DC094B56C
:100160009F7794BD09C09091B0009F7703C0909194
:10017000B0009F7D9093B000F0E0EE0FFF1FEE58AF
:10018000FF4FA591B4919FB7F894811104C08C9151
:100190002095282302C0EC912E2B2C939FBF08950D
:1001A000CF93DF93FC012289822F90E0EF01A0E042
:1001B000B0E0A817B907E4F438813F7023966317BD
:1001C00011F01196F6CFED01CC0FDD1FCA0FDB1F2A
:1001D000CE0FDF1F60696883CD019C01220F331FA2
:1001E000820F931FE80FF91F5283418381E016C0ED
:1001F000263098F42F5F228BDC01AA0FBB1FA80FBB
:10020000B91FAE0FBF1F6F7060696C9360E7269FC8
:1002100090011124348B238BE0CF80E0DF91CF91CC
:10022000089590E0FC01E057FF4F2491FC01E45851
:10023000FF4F8491882399F090E0880F991FFC016B
:10024000E859FF4FA591B491FC01EE58FF4F8591FD
:1002500094918FB7F894EC91E22BEC938FBF0895B3
:10026000CF92DF92EF92FF920F931F93CF93DF9382
:100270006C017A018B01C0E0D0E0CE15DF0581F082
:10028000D8016D918D01D601ED91FC910190F08125
:10029000E02DC6010995892B11F02196EECF7E0144
:1002A000C701DF91CF911F910F91FF90EF90DF90E9
:1002B000CF900895089580E090E00895FC01538D5B
:1002C000448D252F30E0842F90E0821B930B541730
:1002D00010F0CF96089501970895FC01918D828DBD
:1002E000981761F0828DDF01A80FB11D5D968C918A
:1002F000928D9F5F9F73928F90E008958FEF9FEF95
:100300000895FC01918D828D981731F0828DE80F50
:10031000F11D858D90E008958FEF9FEF0895FC010A
:10032000918D228D892F90E0805C9F4F821B9109D7
:100330008F739927089589E291E00E948F0121E04F
:10034000892B09F420E0822F0895FC01848DDF01C0
:10035000A80FB11DA35ABF4F2C91848D90E0019638
:100360008F739927848FA689B7892C93A089B18927
:100370008C91837080648C93938D848D981306C0C8
:100380000288F389E02D80818F7D80830895EF922C
:10039000FF920F931F93CF93DF93EC0181E0888F3F
:1003A0009B8D8C8D981305C0E889F989808185FD26
:1003B00026C0F62E0B8D10E00F5F1F4F0F73112715
:1003C000E02E8C8DE8120CC00FB607FCFACFE8893E
:1003D000F989808185FFF5CFCE010E94A501F1CF7B
:1003E0008B8DFE01E80FF11DE35AFF4FF0829FB79E
:1003F000F8940B8FEA89FB89808180620AC09FB7DD
:10040000F894EE89FF896083E889F9898081837097
:10041000806480839FBF81E090E0DF91CF911F9146
:100420000F91FF90EF900895CF93DF93EC01888DAB
:100430008823C9F0EA89FB89808185FD05C0A889E8
:10044000B9898C9186FD0FC00FB607FCF5CF80816E
:1004500085FFF2CFA889B9898C9185FFEDCFCE01B8
:100460000E94A501E7CFDF91CF91089580E090E051
:10047000892B29F00E949B0181110C9400000895A2
:1004800081E00C9487008091120190911301E4E1C6
:10049000F1E0219131912817390708F4C90121E0D1
:1004A000E032F207B1F7909313018093120108959F
:1004B000CF93DF93C0911401D09115018C0F9D1F34
:1004C000EC01D695C795D0931501C0931401D09334
:1004D0001301C09312010E944302809112012C2F3C
:1004E000281B30E0A0E2BEE40E948E07BB2797FDE8
:1004F000BA95A92F982F872F90935C0280935B0267
:10050000CC3ED24020F0DF91CF910C944002DF919D
:10051000CF910895CF93DF93C0911601D091170129
:100520008C0F9D1FEC01D695C795D0931701C093F2
:100530001601D0931301C09312010E9443028091CF
:1005400012012C2F281B30E0A0E2BEE40E948E078F
:10055000BB2797FDBA95A92F982F872F9093460216
:1005600080934502CC3ED24020F0DF91CF910C9495
:100570004002DF91CF910895CF93DF93C09118018E
:10058000D09119018C0F9D1FEC01D695C795D09382
:100590001901C0931801D0931301C09312010E9456
:1005A0004302809112012C2F281B30E0A0E2BEE410
:1005B0000E948E07BB2797FDBA95A92F982F872FEA
:1005C0009093300280932F02CC3ED24020F0DF91F6
:1005D000CF910C944002DF91CF910895CF93DF9398
:1005E000C0911A01D0911B018C0F9D1FEC01D69573
:1005F000C795D0931B01C0931A01D0931301C093E8
:1006000012010E944302809112012C2F281B30E01E
:10061000A0E2BEE40E948E07BB2797FDBA95A92FE2
:10062000982F872F90931A0280931902CC3ED240C4
:1006300020F0DF91CF910C944002DF91CF9108958B
:10064000CF93DF93C0911C01D0911D018C0F9D1F92
:10065000EC01D695C795D0931D01C0931C01D09392
:100660001301C09312010E944302809112012C2FAA
:10067000281B30E0A0E2BEE40E948E07BB2797FD56
:10068000BA95A92F982F872F909304028093030285
:10069000CC3ED24020F0DF91CF910C944002DF910C
:1006A000CF910895CF93DF93C0911E01D0911F0188
:1006B0008C0F9D1FEC01D695C795D0931F01C09359
:1006C0001E01D0931301C09312010E944302809136
:1006D00012012C2F281B30E0A0E2BEE40E948E07FE
:1006E000BB2797FDBA95A92F982F872F9093EE01DE
:1006F0008093ED01CC3ED24020F0DF91CF910C945D
:100700004002DF91CF910895FC013FB7F8948091AA
:10071000200190912101A0912201B091230126B5E1
:10072000A89B05C02F3F19F00196A11DB11D3FBF29
:10073000BA2FA92F982F8827820F911DA11DB11DB7
:1007400042E0880F991FAA1FBB1F4A95D1F78287E5
:100750009387A487B58746855785608971898417F3
:100760009507A607B707C0F0A181B2818081809567
:100770009C9189238C93138282859385A485B5856A
:1007800086839783A087B18788519C4FAF4FBF4F17
:1007900086879787A08BB18B838181111BC02481B1
:1007A000358186859785A089B189821B930BA10924
:1007B000B109428553856485758584179507A60719
:1007C000B70740F4A181B2819C918081892B8C93E1
:1007D00081E0838308950E94B7071F920F920FB69E
:1007E0000F9211242F933F934F935F936F937F93B7
:1007F0008F939F93AF93BF93EF93FF9389E291E021
:100800000E94A501FF91EF91BF91AF919F918F91B0
:100810007F916F915F914F913F912F910F900FBEFC
:100820000F901F9018951F920F920FB60F921124E0
:100830002F938F939F93EF93FF93E0913901F09162
:100840003A018081E0913F01F091400182FD12C0A8
:100850009081809142018F5F8F73209143018217B5
:1008600051F0E0914201F0E0E75DFE4F958F8093FB
:10087000420101C08081FF91EF919F918F912F9153
:100880000F900FBE0F901F9018951F920F920FB6EA
:100890000F9211242F933F938F939F93AF93BF9306
:1008A0008091250190912601A0912701B091280106
:1008B0003091240123E0230F2D3720F40196A11D50
:1008C000B11D05C026E8230F0296A11DB11D20937E
:1008D00024018093250190932601A0932701B093D2
:1008E00028018091200190912101A0912201B091D5
:1008F00023010196A11DB11D809320019093210138
:10090000A0932201B0932301BF91AF919F918F914A
:100910003F912F910F900FBE0F901F9018951F922F
:100920000F920FB60F9211240F931F932F933F93A3
:100930004F935F936F937F938F939F93AF93BF93E7
:10094000CF93DF93EF93FF930091E7011091E801BC
:10095000F80185899689A789B08D0196A11DB11DE1
:10096000858B968BA78BB08F8091780090917900C2
:1009700020917C002F70628970E0C0E0D0E0C61743
:10098000D70744F440813396342F3F702317D9F1B1
:100990002196F5CFCFEFDFEFF80162896623E9F00A
:1009A000CE01019670E00E947A079C01220F331F4E
:1009B000820F931FE80FF91F2081822F90E0E4E05F
:1009C00095958795EA95E1F78370F0E48F9FC001D4
:1009D00011242F70822B80937C00B29AFF91EF91AB
:1009E000DF91CF91BF91AF919F918F917F916F9147
:1009F0005F914F913F912F911F910F910F900FBEDB
:100A00000F901F90189550E0440F452F441F550B31
:100A10009E01220F331F452B61F0F8016389748911
:100A20002C0F3D1FE20FF31F0180F281E02D09958D
:100A3000B3CF2C0F3D1FF801E20FF31F9283818388
:100A4000ABCF10922C0110922B0188EE93E0A0E026
:100A5000B0E080932D0190932E01A0932F01B093CD
:100A6000300184E091E090932A018093290185EC84
:100A700090E0909336018093350184EC90E0909360
:100A800038018093370180EC90E090933A01809395
:100A9000390181EC90E090933C0180933B0182EC22
:100AA00090E090933E0180933D0186EC90E090931E
:100AB000400180933F011092420110924301109235
:100AC00044011092450110925A0222E330E0309323
:100AD0005C0220935B0210925D0210925E02109203
:100AE0005F021092600210926502109266021092EC
:100AF0006702109268021092690210926A021092C4
:100B00006B0210926C0284E0809357028BE290E0BB
:100B100090935902809358021092440230934602F7
:100B20002093450210924702109248021092490207
:100B300010924A0210924F021092500210925102EB
:100B400010925202109253021092540210925502C7
:100B50001092560248E040934102909343028093E2
:100B6000420210922E023093300220932F021092F4
:100B7000310210923202109233021092340210921B
:100B8000390210923A0210923B0210923C021092EB
:100B90003D0210923E0210923F021092400240E14C
:100BA00040932B0290932D0280932C0210921802F6
:100BB00030931A022093190210921B0210921C0209
:100BC00010921D0210921E02109223021092240213
:100BD00010922502109226021092270210922802EB
:100BE0001092290210922A0240E24093150290933B
:100BF000170280931602109202023093040220938F
:100C0000030210920502109206021092070210923F
:100C1000080210920D0210920E0210920F02109212
:100C200010021092110210921202109213021092EE
:100C3000140240E44093FF0190930102809300026C
:100C40001092EC013093EE012093ED011092EF0130
:100C50001092F0011092F1011092F2011092F7013E
:100C60001092F8011092F9011092FA011092FB0112
:100C70001092FC011092FD011092FE0120E82093D9
:100C8000E9019093EB018093EA018091DF018111EA
:100C90004CC01092D8011092DB011092DC0110922E
:100CA000DD011092DE01789410927A0080917A0032
:100CB000816080937A0080917A00826080937A00CC
:100CC00080917A00846080937A0080917A008068B5
:100CD00080937A0080917A00886080937A00809176
:100CE0007A00806280937A0080917B00816080939B
:100CF0007B0080917B00846080937B0080EE90E09D
:100D000090938B0080938A00109280001092810053
:100D10008091810088608093810080918100816052
:100D20008093810081E08093DF0186EC91E09093D5
:100D3000E8018093E7010895789484B5826084BDCA
:100D400084B5816084BD85B5826085BD85B58160CF
:100D500085BD80916E00816080936E00109281004D
:100D60008091810082608093810080918100816008
:100D700080938100809180008160809380008091C9
:100D8000B10084608093B1008091B0008160809355
:100D9000B00080917A00846080937A0080917A001C
:100DA000826080937A0080917A00816080937A00DB
:100DB00080917A00806880937A001092C100C0917F
:100DC000E701D091E80148E552E060E0CE010E94E1
:100DD000D0004AE852E061E0CE010E94D0004CEB26
:100DE00052E062E0CE010E94D0004EEE52E063E09D
:100DF000CE010E94D00040E253E064E0CE010E94A8
:100E0000D00042E553E065E0CE010E94D00082E0D0
:100E10000E94110183E00E94110184E00E941101EF
:100E200085E00E94110186E00E94110187E00E9486
:100E30001101E0913901F0913A0182E08083E09163
:100E40003901F0913A011082E0913501F0913601BB
:100E50001082E0913701F091380180E18083109297
:100E60004101E0913D01F0913E0186E08083E091F7
:100E70003B01F0913C01808180618083E0913B01E6
:100E8000F0913C01808188608083E0913B01F0918A
:100E90003C01808180688083E0913B01F0913C01BE
:100EA00080818F7D808389E00E94110180E00E9413
:100EB00087008BE00E941101C8E0C3B987E592E08A
:100EC0000E94840381E492E00E9484038BE292E01A
:100ED0000E94840385E192E00E9484038FEF91E0F9
:100EE0000E94840389EE91E00E948403C3B90E94AA
:100EF0003602E3CF97FB072E16F4009407D077FD58
:100F000009D00E949D0707FC05D03EF4909581957D
:100F10009F4F0895709561957F4F0895A29FB001EE
:100F2000B39FC001A39F700D811D1124911DB29F1D
:100F3000700D811D1124911D0895AA1BBB1B51E149
:100F400007C0AA1FBB1FA617B70710F0A61BB70B39
:100F5000881F991F5A95A9F780959095BC01CD01DE
:100F60000895EE0FFF1F0590F491E02D099481E0A4
:0C0F700090E0F8940C94BC07F894FFCFBC
:100F7C0000000000C70130015E0114028F016D01F9
:020F8C008101E1
:107E0000112484B714BE81FFF0D085E080938100F7
:107E100082E08093C00088E18093C10086E0809377
:107E2000C20080E18093C4008EE0C9D0259A86E02C
:107E300020E33CEF91E0309385002093840096BBD3
:107E4000B09BFECF1D9AA8958150A9F7CC24DD24C4
:107E500088248394B5E0AB2EA1E19A2EF3E0BF2EE7
:107E6000A2D0813461F49FD0082FAFD0023811F036
:107E7000013811F484E001C083E08DD089C08234E0
:107E800011F484E103C0853419F485E0A6D080C0E4
:107E9000853579F488D0E82EFF2485D0082F10E0AE
:107EA000102F00270E291F29000F111F8ED06801E7
:107EB0006FC0863521F484E090D080E0DECF843638
:107EC00009F040C070D06FD0082F6DD080E0C81688
:107ED00080E7D80618F4F601B7BEE895C0E0D1E017
:107EE00062D089930C17E1F7F0E0CF16F0E7DF06D8
:107EF00018F0F601B7BEE89568D007B600FCFDCFD4
:107F0000A601A0E0B1E02C9130E011968C91119780
:107F100090E0982F8827822B932B1296FA010C0160
:107F200087BEE89511244E5F5F4FF1E0A038BF0790
:107F300051F7F601A7BEE89507B600FCFDCF97BE46
:107F4000E89526C08437B1F42ED02DD0F82E2BD052
:107F50003CD0F601EF2C8F010F5F1F4F84911BD097
:107F6000EA94F801C1F70894C11CD11CFA94CF0C13
:107F7000D11C0EC0853739F428D08EE10CD085E9AC
:107F80000AD08FE07ACF813511F488E018D01DD067
:107F900080E101D065CF982F8091C00085FFFCCF94
:107FA0009093C60008958091C00087FFFCCF809118
:107FB000C00084FD01C0A8958091C6000895E0E648
:107FC000F0E098E1908380830895EDDF803219F02E
:107FD00088E0F5DFFFCF84E1DECF1F93182FE3DFCA
:107FE0001150E9F7F2DF1F91089580E0E8DFEE27F6
:047FF000FF270994CA
:027FFE00040479
:0400000300007E007B
:00000001FF
